{
  "_format": "hh-sol-artifact-1",
  "contractName": "WavePortal",
  "sourceName": "contracts/WavePortal.sol",
  "abi": [
    {
      "inputs": [],
      "stateMutability": "nonpayable",
      "type": "constructor"
    },
    {
      "anonymous": false,
      "inputs": [
        {
          "indexed": true,
          "internalType": "address",
          "name": "from",
          "type": "address"
        },
        {
          "indexed": false,
          "internalType": "uint256",
          "name": "timestamp",
          "type": "uint256"
        },
        {
          "indexed": false,
          "internalType": "string",
          "name": "message",
          "type": "string"
        }
      ],
      "name": "NewWave",
      "type": "event"
    },
    {
      "inputs": [],
      "name": "getAllWaves",
      "outputs": [
        {
          "components": [
            {
              "internalType": "address",
              "name": "waver",
              "type": "address"
            },
            {
              "internalType": "string",
              "name": "message",
              "type": "string"
            },
            {
              "internalType": "uint256",
              "name": "timestamp",
              "type": "uint256"
            }
          ],
          "internalType": "struct WavePortal.Wave[]",
          "name": "",
          "type": "tuple[]"
        }
      ],
      "stateMutability": "view",
      "type": "function"
    },
    {
      "inputs": [],
      "name": "getTotalWaves",
      "outputs": [
        {
          "internalType": "uint256",
          "name": "",
          "type": "uint256"
        }
      ],
      "stateMutability": "view",
      "type": "function"
    },
    {
      "inputs": [
        {
          "internalType": "string",
          "name": "_message",
          "type": "string"
        }
      ],
      "name": "wave",
      "outputs": [],
      "stateMutability": "nonpayable",
      "type": "function"
    },
    {
      "inputs": [
        {
          "internalType": "uint256",
          "name": "",
          "type": "uint256"
        }
      ],
      "name": "waveList",
      "outputs": [
        {
          "internalType": "address",
          "name": "",
          "type": "address"
        }
      ],
      "stateMutability": "view",
      "type": "function"
    }
  ],
  "bytecode": "0x60806040523480156200001157600080fd5b50620000416040518060600160405280603a815260200162000f22603a91396200004760201b6200042c1760201c565b620001db565b620000e7816040516024016200005e919062000154565b6040516020818303038152906040527f41304fac000000000000000000000000000000000000000000000000000000007bffffffffffffffffffffffffffffffffffffffffffffffffffffffff19166020820180517bffffffffffffffffffffffffffffffffffffffffffffffffffffffff8381831617835250505050620000ea60201b60201c565b50565b60008151905060006a636f6e736f6c652e6c6f679050602083016000808483855afa5050505050565b6000620001208262000178565b6200012c818562000183565b93506200013e81856020860162000194565b6200014981620001ca565b840191505092915050565b6000602082019050818103600083015262000170818462000113565b905092915050565b600081519050919050565b600082825260208201905092915050565b60005b83811015620001b457808201518184015260208101905062000197565b83811115620001c4576000848401525b50505050565b6000601f19601f8301169050919050565b610d3780620001eb6000396000f3fe608060405234801561001057600080fd5b506004361061004c5760003560e01c8063449d46c0146100515780638b9c3ecd1461006d5780639a2cdc081461009d578063bd43a908146100bb575b600080fd5b61006b60048036038101906100669190610749565b6100d9565b005b6100876004803603810190610082919061078a565b610251565b604051610094919061093a565b60405180910390f35b6100a5610290565b6040516100b29190610a0e565b60405180910390f35b6100c36102db565b6040516100d09190610955565b60405180910390f35b60016000808282546100eb9190610b15565b925050819055506101326040518060400160405280601681526020017f257320776176656420772f206d6573736167652025730000000000000000000081525033836104c5565b600160405180606001604052803373ffffffffffffffffffffffffffffffffffffffff16815260200183815260200142815250908060018154018082558091505060019003906000526020600020906003020160009091909190915060008201518160000160006101000a81548173ffffffffffffffffffffffffffffffffffffffff021916908373ffffffffffffffffffffffffffffffffffffffff16021790555060208201518160010190805190602001906101f1929190610629565b506040820151816002015550503373ffffffffffffffffffffffffffffffffffffffff167f5f7e16dc676677766a70e9c5628aa6c54ddb8b6e5188e2ae1e1f17f1ffbea7164283604051610246929190610a29565b60405180910390a250565b6002818154811061026157600080fd5b906000526020600020016000915054906101000a900473ffffffffffffffffffffffffffffffffffffffff1681565b60006102d36040518060400160405280601781526020017f5765206861766520256420746f74616c20776176657321000000000000000000815250600054610564565b600054905090565b60606001805480602002602001604051908101604052809291908181526020016000905b8282101561042357838290600052602060002090600302016040518060600160405290816000820160009054906101000a900473ffffffffffffffffffffffffffffffffffffffff1673ffffffffffffffffffffffffffffffffffffffff1673ffffffffffffffffffffffffffffffffffffffff16815260200160018201805461038890610be9565b80601f01602080910402602001604051908101604052809291908181526020018280546103b490610be9565b80156104015780601f106103d657610100808354040283529160200191610401565b820191906000526020600020905b8154815290600101906020018083116103e457829003601f168201915b50505050508152602001600282015481525050815260200190600101906102ff565b50505050905090565b6104c2816040516024016104409190610977565b6040516020818303038152906040527f41304fac000000000000000000000000000000000000000000000000000000007bffffffffffffffffffffffffffffffffffffffffffffffffffffffff19166020820180517bffffffffffffffffffffffffffffffffffffffffffffffffffffffff8381831617835250505050610600565b50565b61055f8383836040516024016104dd93929190610999565b6040516020818303038152906040527fe0e9ad4f000000000000000000000000000000000000000000000000000000007bffffffffffffffffffffffffffffffffffffffffffffffffffffffff19166020820180517bffffffffffffffffffffffffffffffffffffffffffffffffffffffff8381831617835250505050610600565b505050565b6105fc828260405160240161057a9291906109de565b6040516020818303038152906040527f9710a9d0000000000000000000000000000000000000000000000000000000007bffffffffffffffffffffffffffffffffffffffffffffffffffffffff19166020820180517bffffffffffffffffffffffffffffffffffffffffffffffffffffffff8381831617835250505050610600565b5050565b60008151905060006a636f6e736f6c652e6c6f679050602083016000808483855afa5050505050565b82805461063590610be9565b90600052602060002090601f016020900481019282610657576000855561069e565b82601f1061067057805160ff191683800117855561069e565b8280016001018555821561069e579182015b8281111561069d578251825591602001919060010190610682565b5b5090506106ab91906106af565b5090565b5b808211156106c85760008160009055506001016106b0565b5090565b60006106df6106da84610a7e565b610a59565b9050828152602081018484840111156106f757600080fd5b610702848285610ba7565b509392505050565b600082601f83011261071b57600080fd5b813561072b8482602086016106cc565b91505092915050565b60008135905061074381610cea565b92915050565b60006020828403121561075b57600080fd5b600082013567ffffffffffffffff81111561077557600080fd5b6107818482850161070a565b91505092915050565b60006020828403121561079c57600080fd5b60006107aa84828501610734565b91505092915050565b60006107bf83836108cc565b905092915050565b6107d081610b6b565b82525050565b6107df81610b6b565b82525050565b60006107f082610abf565b6107fa8185610ae2565b93508360208202850161080c85610aaf565b8060005b85811015610848578484038952815161082985826107b3565b945061083483610ad5565b925060208a01995050600181019050610810565b50829750879550505050505092915050565b600061086582610aca565b61086f8185610af3565b935061087f818560208601610bb6565b61088881610cd9565b840191505092915050565b600061089e82610aca565b6108a88185610b04565b93506108b8818560208601610bb6565b6108c181610cd9565b840191505092915050565b60006060830160008301516108e460008601826107c7565b50602083015184820360208601526108fc828261085a565b9150506040830151610911604086018261091c565b508091505092915050565b61092581610b9d565b82525050565b61093481610b9d565b82525050565b600060208201905061094f60008301846107d6565b92915050565b6000602082019050818103600083015261096f81846107e5565b905092915050565b600060208201905081810360008301526109918184610893565b905092915050565b600060608201905081810360008301526109b38186610893565b90506109c260208301856107d6565b81810360408301526109d48184610893565b9050949350505050565b600060408201905081810360008301526109f88185610893565b9050610a07602083018461092b565b9392505050565b6000602082019050610a23600083018461092b565b92915050565b6000604082019050610a3e600083018561092b565b8181036020830152610a508184610893565b90509392505050565b6000610a63610a74565b9050610a6f8282610c1b565b919050565b6000604051905090565b600067ffffffffffffffff821115610a9957610a98610caa565b5b610aa282610cd9565b9050602081019050919050565b6000819050602082019050919050565b600081519050919050565b600081519050919050565b6000602082019050919050565b600082825260208201905092915050565b600082825260208201905092915050565b600082825260208201905092915050565b6000610b2082610b9d565b9150610b2b83610b9d565b9250827fffffffffffffffffffffffffffffffffffffffffffffffffffffffffffffffff03821115610b6057610b5f610c4c565b5b828201905092915050565b6000610b7682610b7d565b9050919050565b600073ffffffffffffffffffffffffffffffffffffffff82169050919050565b6000819050919050565b82818337600083830152505050565b60005b83811015610bd4578082015181840152602081019050610bb9565b83811115610be3576000848401525b50505050565b60006002820490506001821680610c0157607f821691505b60208210811415610c1557610c14610c7b565b5b50919050565b610c2482610cd9565b810181811067ffffffffffffffff82111715610c4357610c42610caa565b5b80604052505050565b7f4e487b7100000000000000000000000000000000000000000000000000000000600052601160045260246000fd5b7f4e487b7100000000000000000000000000000000000000000000000000000000600052602260045260246000fd5b7f4e487b7100000000000000000000000000000000000000000000000000000000600052604160045260246000fd5b6000601f19601f8301169050919050565b610cf381610b9d565b8114610cfe57600080fd5b5056fea264697066735822122066aa1425579047a9972932bb0c4a1b5ffa88704206a096141f5af0fdfceb4d9b64736f6c6343000804003348656c6c6f2066726f6d2074686520626c6f636b636861696e2e20466f6c6c6f77206d6520646f776e207468652072616262697420686f6c6521",
  "linkReferences": {},
  "deployedLinkReferences": {}
}