{
  "_format": "hh-sol-artifact-1",
  "contractName": "WavePortal",
  "sourceName": "contracts/WavePortal.sol",
  "abi": [
    {
      "inputs": [],
      "stateMutability": "nonpayable",
      "type": "constructor"
    },
    {
      "inputs": [],
      "name": "getTotalWaves",
      "outputs": [
        {
          "internalType": "uint256",
          "name": "",
          "type": "uint256"
        }
      ],
      "stateMutability": "view",
      "type": "function"
    },
    {
      "inputs": [],
      "name": "wave",
      "outputs": [],
      "stateMutability": "nonpayable",
      "type": "function"
    },
    {
      "inputs": [
        {
          "internalType": "uint256",
          "name": "",
          "type": "uint256"
        }
      ],
      "name": "waveList",
      "outputs": [
        {
          "internalType": "address",
          "name": "",
          "type": "address"
        }
      ],
      "stateMutability": "view",
      "type": "function"
    }
  ],
  "bytecode": "0x608060405234801561001057600080fd5b5061003c6040518060600160405280603a8152602001610874603a913961004160201b6101c81760201c565b6101c4565b6100dd816040516024016100559190610142565b6040516020818303038152906040527f41304fac000000000000000000000000000000000000000000000000000000007bffffffffffffffffffffffffffffffffffffffffffffffffffffffff19166020820180517bffffffffffffffffffffffffffffffffffffffffffffffffffffffff83818316178352505050506100e060201b60201c565b50565b60008151905060006a636f6e736f6c652e6c6f679050602083016000808483855afa5050505050565b600061011482610164565b61011e818561016f565b935061012e818560208601610180565b610137816101b3565b840191505092915050565b6000602082019050818103600083015261015c8184610109565b905092915050565b600081519050919050565b600082825260208201905092915050565b60005b8381101561019e578082015181840152602081019050610183565b838111156101ad576000848401525b50505050565b6000601f19601f8301169050919050565b6106a1806101d36000396000f3fe608060405234801561001057600080fd5b50600436106100415760003560e01c80636fe15b44146100465780638b9c3ecd146100505780639a2cdc0814610080575b600080fd5b61004e61009e565b005b61006a600480360381019061006591906103d7565b61015b565b6040516100779190610457565b60405180910390f35b61008861019a565b60405161009591906104f4565b60405180910390f35b60016000808282546100b0919061052b565b925050819055506001339080600181540180825580915050600190039060005260206000200160009091909190916101000a81548173ffffffffffffffffffffffffffffffffffffffff021916908373ffffffffffffffffffffffffffffffffffffffff1602179055506101596040518060400160405280601281526020017f25732068617320736169642068656c6c6f21000000000000000000000000000081525033610261565b565b6001818154811061016b57600080fd5b906000526020600020016000915054906101000a900473ffffffffffffffffffffffffffffffffffffffff1681565b60006101c0604051806060016040528060248152602001610648602491396000546102fd565b600054905090565b61025e816040516024016101dc9190610472565b6040516020818303038152906040527f41304fac000000000000000000000000000000000000000000000000000000007bffffffffffffffffffffffffffffffffffffffffffffffffffffffff19166020820180517bffffffffffffffffffffffffffffffffffffffffffffffffffffffff8381831617835250505050610399565b50565b6102f98282604051602401610277929190610494565b6040516020818303038152906040527f319af333000000000000000000000000000000000000000000000000000000007bffffffffffffffffffffffffffffffffffffffffffffffffffffffff19166020820180517bffffffffffffffffffffffffffffffffffffffffffffffffffffffff8381831617835250505050610399565b5050565b61039582826040516024016103139291906104c4565b6040516020818303038152906040527f9710a9d0000000000000000000000000000000000000000000000000000000007bffffffffffffffffffffffffffffffffffffffffffffffffffffffff19166020820180517bffffffffffffffffffffffffffffffffffffffffffffffffffffffff8381831617835250505050610399565b5050565b60008151905060006a636f6e736f6c652e6c6f679050602083016000808483855afa5050505050565b6000813590506103d181610630565b92915050565b6000602082840312156103e957600080fd5b60006103f7848285016103c2565b91505092915050565b61040981610581565b82525050565b600061041a8261050f565b610424818561051a565b93506104348185602086016105bd565b61043d8161061f565b840191505092915050565b610451816105b3565b82525050565b600060208201905061046c6000830184610400565b92915050565b6000602082019050818103600083015261048c818461040f565b905092915050565b600060408201905081810360008301526104ae818561040f565b90506104bd6020830184610400565b9392505050565b600060408201905081810360008301526104de818561040f565b90506104ed6020830184610448565b9392505050565b60006020820190506105096000830184610448565b92915050565b600081519050919050565b600082825260208201905092915050565b6000610536826105b3565b9150610541836105b3565b9250827fffffffffffffffffffffffffffffffffffffffffffffffffffffffffffffffff03821115610576576105756105f0565b5b828201905092915050565b600061058c82610593565b9050919050565b600073ffffffffffffffffffffffffffffffffffffffff82169050919050565b6000819050919050565b60005b838110156105db5780820151818401526020810190506105c0565b838111156105ea576000848401525b50505050565b7f4e487b7100000000000000000000000000000000000000000000000000000000600052601160045260246000fd5b6000601f19601f8301169050919050565b610639816105b3565b811461064457600080fd5b5056fe25642070656f706c652068617665207369676e656420746865206775657374626f6f6b21a2646970667358221220bd096ab0ec1fdff658016a5cb5dfbac552ae93d7f82610fe38b94e6a1559075a64736f6c6343000804003348656c6c6f2066726f6d2074686520626c6f636b636861696e2e20466f6c6c6f77206d6520646f776e207468652072616262697420686f6c6521",
  "linkReferences": {},
  "deployedLinkReferences": {}
}