{
  "_format": "hh-sol-artifact-1",
  "contractName": "WavePortal",
  "sourceName": "contracts/WavePortal.sol",
  "abi": [
    {
      "inputs": [],
      "stateMutability": "payable",
      "type": "constructor"
    },
    {
      "anonymous": false,
      "inputs": [
        {
          "indexed": true,
          "internalType": "address",
          "name": "from",
          "type": "address"
        },
        {
          "indexed": false,
          "internalType": "uint256",
          "name": "timestamp",
          "type": "uint256"
        },
        {
          "indexed": false,
          "internalType": "string",
          "name": "voteData",
          "type": "string"
        }
      ],
      "name": "NewVote",
      "type": "event"
    },
    {
      "anonymous": false,
      "inputs": [
        {
          "indexed": true,
          "internalType": "address",
          "name": "from",
          "type": "address"
        },
        {
          "indexed": false,
          "internalType": "uint256",
          "name": "timestamp",
          "type": "uint256"
        },
        {
          "indexed": false,
          "internalType": "string",
          "name": "message",
          "type": "string"
        }
      ],
      "name": "NewWave",
      "type": "event"
    },
    {
      "inputs": [],
      "name": "getAllVotes",
      "outputs": [
        {
          "components": [
            {
              "internalType": "address",
              "name": "voter",
              "type": "address"
            },
            {
              "internalType": "string",
              "name": "voteData",
              "type": "string"
            },
            {
              "internalType": "uint256",
              "name": "timestamp",
              "type": "uint256"
            }
          ],
          "internalType": "struct WavePortal.Vote[]",
          "name": "",
          "type": "tuple[]"
        }
      ],
      "stateMutability": "view",
      "type": "function"
    },
    {
      "inputs": [],
      "name": "getAllWaves",
      "outputs": [
        {
          "components": [
            {
              "internalType": "address",
              "name": "waver",
              "type": "address"
            },
            {
              "internalType": "string",
              "name": "message",
              "type": "string"
            },
            {
              "internalType": "uint256",
              "name": "timestamp",
              "type": "uint256"
            }
          ],
          "internalType": "struct WavePortal.Wave[]",
          "name": "",
          "type": "tuple[]"
        }
      ],
      "stateMutability": "view",
      "type": "function"
    },
    {
      "inputs": [],
      "name": "getTotalVotes",
      "outputs": [
        {
          "internalType": "uint256",
          "name": "",
          "type": "uint256"
        }
      ],
      "stateMutability": "view",
      "type": "function"
    },
    {
      "inputs": [],
      "name": "getTotalWaves",
      "outputs": [
        {
          "internalType": "uint256",
          "name": "",
          "type": "uint256"
        }
      ],
      "stateMutability": "view",
      "type": "function"
    },
    {
      "inputs": [
        {
          "internalType": "string",
          "name": "_voteData",
          "type": "string"
        }
      ],
      "name": "vote",
      "outputs": [],
      "stateMutability": "nonpayable",
      "type": "function"
    },
    {
      "inputs": [
        {
          "internalType": "string",
          "name": "_message",
          "type": "string"
        }
      ],
      "name": "wave",
      "outputs": [],
      "stateMutability": "nonpayable",
      "type": "function"
    }
  ],
  "bytecode": "0x6080604052620000336040518060600160405280603a81526020016200176f603a91396200003960201b6200094d1760201c565b620001cd565b620000d98160405160240162000050919062000146565b6040516020818303038152906040527f41304fac000000000000000000000000000000000000000000000000000000007bffffffffffffffffffffffffffffffffffffffffffffffffffffffff19166020820180517bffffffffffffffffffffffffffffffffffffffffffffffffffffffff8381831617835250505050620000dc60201b60201c565b50565b60008151905060006a636f6e736f6c652e6c6f679050602083016000808483855afa5050505050565b600062000112826200016a565b6200011e818562000175565b93506200013081856020860162000186565b6200013b81620001bc565b840191505092915050565b6000602082019050818103600083015262000162818462000105565b905092915050565b600081519050919050565b600082825260208201905092915050565b60005b83811015620001a657808201518184015260208101905062000189565b83811115620001b6576000848401525b50505050565b6000601f19601f8301169050919050565b61159280620001dd6000396000f3fe608060405234801561001057600080fd5b50600436106100625760003560e01c8063449d46c014610067578063851b6ef2146100835780639a0e7d66146100a15780639a2cdc08146100bf578063bd43a908146100dd578063fc36e15b146100fb575b600080fd5b610081600480360381019061007c9190610c52565b610117565b005b61008b61038a565b6040516100989190610fb7565b60405180910390f35b6100a96104db565b6040516100b691906110fd565b60405180910390f35b6100c7610526565b6040516100d491906110fd565b60405180910390f35b6100e5610571565b6040516100f29190610fd9565b60405180910390f35b61011560048036038101906101109190610c52565b6106c2565b005b60016000808282546101299190611248565b9250508190555061016f6040518060400160405280600d81526020017f2573206861732077617665642100000000000000000000000000000000000000815250336109e6565b600260405180606001604052803373ffffffffffffffffffffffffffffffffffffffff16815260200183815260200142815250908060018154018082558091505060019003906000526020600020906003020160009091909190915060008201518160000160006101000a81548173ffffffffffffffffffffffffffffffffffffffff021916908373ffffffffffffffffffffffffffffffffffffffff160217905550602082015181600101908051906020019061022e929190610b47565b506040820151816002015550503373ffffffffffffffffffffffffffffffffffffffff167f5f7e16dc676677766a70e9c5628aa6c54ddb8b6e5188e2ae1e1f17f1ffbea7164283604051610283929190611118565b60405180910390a26000655af3107a40009050478111156102d9576040517f08c379a00000000000000000000000000000000000000000000000000000000081526004016102d09061109d565b60405180910390fd5b60003373ffffffffffffffffffffffffffffffffffffffff16826040516102ff90610fa2565b60006040518083038185875af1925050503d806000811461033c576040519150601f19603f3d011682016040523d82523d6000602084013e610341565b606091505b5050905080610385576040517f08c379a000000000000000000000000000000000000000000000000000000000815260040161037c906110bd565b60405180910390fd5b505050565b60606003805480602002602001604051908101604052809291908181526020016000905b828210156104d257838290600052602060002090600302016040518060600160405290816000820160009054906101000a900473ffffffffffffffffffffffffffffffffffffffff1673ffffffffffffffffffffffffffffffffffffffff1673ffffffffffffffffffffffffffffffffffffffff1681526020016001820180546104379061131c565b80601f01602080910402602001604051908101604052809291908181526020018280546104639061131c565b80156104b05780601f10610485576101008083540402835291602001916104b0565b820191906000526020600020905b81548152906001019060200180831161049357829003601f168201915b50505050508152602001600282015481525050815260200190600101906103ae565b50505050905090565b600061051e6040518060400160405280601781526020017f5765206861766520256420746f74616c20776176657321000000000000000000815250600154610a82565b600154905090565b60006105696040518060400160405280601781526020017f5765206861766520256420746f74616c20776176657321000000000000000000815250600054610a82565b600054905090565b60606002805480602002602001604051908101604052809291908181526020016000905b828210156106b957838290600052602060002090600302016040518060600160405290816000820160009054906101000a900473ffffffffffffffffffffffffffffffffffffffff1673ffffffffffffffffffffffffffffffffffffffff1673ffffffffffffffffffffffffffffffffffffffff16815260200160018201805461061e9061131c565b80601f016020809104026020016040519081016040528092919081815260200182805461064a9061131c565b80156106975780601f1061066c57610100808354040283529160200191610697565b820191906000526020600020905b81548152906001019060200180831161067a57829003601f168201915b5050505050815260200160028201548152505081526020019060010190610595565b50505050905090565b60018060008282546106d49190611248565b9250508190555061071a6040518060400160405280600d81526020017f25732068617320766f7465642100000000000000000000000000000000000000815250336109e6565b600360405180606001604052803373ffffffffffffffffffffffffffffffffffffffff16815260200183815260200142815250908060018154018082558091505060019003906000526020600020906003020160009091909190915060008201518160000160006101000a81548173ffffffffffffffffffffffffffffffffffffffff021916908373ffffffffffffffffffffffffffffffffffffffff16021790555060208201518160010190805190602001906107d9929190610b47565b506040820151816002015550503373ffffffffffffffffffffffffffffffffffffffff167ff3bb4a59f9a41b07650fa6eb0aaaf8f6e78fe9a712e0c0989ee060358403a89c428360405161082e929190611118565b60405180910390a260006608e1bc9bf0400090503373ffffffffffffffffffffffffffffffffffffffff163181111561089c576040517f08c379a0000000000000000000000000000000000000000000000000000000008152600401610893906110dd565b60405180910390fd5b60003373ffffffffffffffffffffffffffffffffffffffff16826040516108c290610fa2565b60006040518083038185875af1925050503d80600081146108ff576040519150601f19603f3d011682016040523d82523d6000602084013e610904565b606091505b5050905080610948576040517f08c379a000000000000000000000000000000000000000000000000000000000815260040161093f9061107d565b60405180910390fd5b505050565b6109e3816040516024016109619190610ffb565b6040516020818303038152906040527f41304fac000000000000000000000000000000000000000000000000000000007bffffffffffffffffffffffffffffffffffffffffffffffffffffffff19166020820180517bffffffffffffffffffffffffffffffffffffffffffffffffffffffff8381831617835250505050610b1e565b50565b610a7e82826040516024016109fc92919061101d565b6040516020818303038152906040527f319af333000000000000000000000000000000000000000000000000000000007bffffffffffffffffffffffffffffffffffffffffffffffffffffffff19166020820180517bffffffffffffffffffffffffffffffffffffffffffffffffffffffff8381831617835250505050610b1e565b5050565b610b1a8282604051602401610a9892919061104d565b6040516020818303038152906040527f9710a9d0000000000000000000000000000000000000000000000000000000007bffffffffffffffffffffffffffffffffffffffffffffffffffffffff19166020820180517bffffffffffffffffffffffffffffffffffffffffffffffffffffffff8381831617835250505050610b1e565b5050565b60008151905060006a636f6e736f6c652e6c6f679050602083016000808483855afa5050505050565b828054610b539061131c565b90600052602060002090601f016020900481019282610b755760008555610bbc565b82601f10610b8e57805160ff1916838001178555610bbc565b82800160010185558215610bbc579182015b82811115610bbb578251825591602001919060010190610ba0565b5b509050610bc99190610bcd565b5090565b5b80821115610be6576000816000905550600101610bce565b5090565b6000610bfd610bf88461116d565b611148565b905082815260208101848484011115610c1557600080fd5b610c208482856112da565b509392505050565b600082601f830112610c3957600080fd5b8135610c49848260208601610bea565b91505092915050565b600060208284031215610c6457600080fd5b600082013567ffffffffffffffff811115610c7e57600080fd5b610c8a84828501610c28565b91505092915050565b6000610c9f8383610ee4565b905092915050565b6000610cb38383610f34565b905092915050565b610cc48161129e565b82525050565b610cd38161129e565b82525050565b6000610ce4826111be565b610cee81856111f9565b935083602082028501610d008561119e565b8060005b85811015610d3c5784840389528151610d1d8582610c93565b9450610d28836111df565b925060208a01995050600181019050610d04565b50829750879550505050505092915050565b6000610d59826111c9565b610d63818561120a565b935083602082028501610d75856111ae565b8060005b85811015610db15784840389528151610d928582610ca7565b9450610d9d836111ec565b925060208a01995050600181019050610d79565b50829750879550505050505092915050565b6000610dce826111d4565b610dd88185611226565b9350610de88185602086016112e9565b610df18161140c565b840191505092915050565b6000610e07826111d4565b610e118185611237565b9350610e218185602086016112e9565b610e2a8161140c565b840191505092915050565b6000610e42602383611237565b9150610e4d8261141d565b604082019050919050565b6000610e65603483611237565b9150610e708261146c565b604082019050919050565b6000610e88602783611237565b9150610e93826114bb565b604082019050919050565b6000610eab603083611237565b9150610eb68261150a565b604082019050919050565b6000610ece60008361121b565b9150610ed982611559565b600082019050919050565b6000606083016000830151610efc6000860182610cbb565b5060208301518482036020860152610f148282610dc3565b9150506040830151610f296040860182610f84565b508091505092915050565b6000606083016000830151610f4c6000860182610cbb565b5060208301518482036020860152610f648282610dc3565b9150506040830151610f796040860182610f84565b508091505092915050565b610f8d816112d0565b82525050565b610f9c816112d0565b82525050565b6000610fad82610ec1565b9150819050919050565b60006020820190508181036000830152610fd18184610cd9565b905092915050565b60006020820190508181036000830152610ff38184610d4e565b905092915050565b600060208201905081810360008301526110158184610dfc565b905092915050565b600060408201905081810360008301526110378185610dfc565b90506110466020830184610cca565b9392505050565b600060408201905081810360008301526110678185610dfc565b90506110766020830184610f93565b9392505050565b6000602082019050818103600083015261109681610e35565b9050919050565b600060208201905081810360008301526110b681610e58565b9050919050565b600060208201905081810360008301526110d681610e7b565b9050919050565b600060208201905081810360008301526110f681610e9e565b9050919050565b60006020820190506111126000830184610f93565b92915050565b600060408201905061112d6000830185610f93565b818103602083015261113f8184610dfc565b90509392505050565b6000611152611163565b905061115e828261134e565b919050565b6000604051905090565b600067ffffffffffffffff821115611188576111876113dd565b5b6111918261140c565b9050602081019050919050565b6000819050602082019050919050565b6000819050602082019050919050565b600081519050919050565b600081519050919050565b600081519050919050565b6000602082019050919050565b6000602082019050919050565b600082825260208201905092915050565b600082825260208201905092915050565b600081905092915050565b600082825260208201905092915050565b600082825260208201905092915050565b6000611253826112d0565b915061125e836112d0565b9250827fffffffffffffffffffffffffffffffffffffffffffffffffffffffffffffffff038211156112935761129261137f565b5b828201905092915050565b60006112a9826112b0565b9050919050565b600073ffffffffffffffffffffffffffffffffffffffff82169050919050565b6000819050919050565b82818337600083830152505050565b60005b838110156113075780820151818401526020810190506112ec565b83811115611316576000848401525b50505050565b6000600282049050600182168061133457607f821691505b60208210811415611348576113476113ae565b5b50919050565b6113578261140c565b810181811067ffffffffffffffff82111715611376576113756113dd565b5b80604052505050565b7f4e487b7100000000000000000000000000000000000000000000000000000000600052601160045260246000fd5b7f4e487b7100000000000000000000000000000000000000000000000000000000600052602260045260246000fd5b7f4e487b7100000000000000000000000000000000000000000000000000000000600052604160045260246000fd5b6000601f19601f8301169050919050565b7f4661696c656420746f207769746864726177206d6f6e65792066726f6d20757360008201527f65722e0000000000000000000000000000000000000000000000000000000000602082015250565b7f547279696e6720746f207769746864726177206d6f7265206d6f6e657920746860008201527f616e2074686520636f6e7472616374206861732e000000000000000000000000602082015250565b7f4661696c656420746f207769746864726177206d6f6e65792066726f6d20636f60008201527f6e74726163742e00000000000000000000000000000000000000000000000000602082015250565b7f547279696e6720746f207769746864726177206d6f7265206d6f6e657920746860008201527f616e207468652075736572206861732e00000000000000000000000000000000602082015250565b5056fea26469706673582212209fc821d09dfcc4ee8fb77ac4db14d91f8f59c6694aedfe27c2e6d5e4e582363264736f6c6343000804003348656c6c6f2066726f6d2074686520626c6f636b636861696e2e20466f6c6c6f77206d6520646f776e207468652072616262697420686f6c6521",
  "linkReferences": {},
  "deployedLinkReferences": {}
}